:100000000C94AB000C94D80A0C94D80A0C94D80A1F
:100010000C94D80A0C94D80A0C94D80A0C94D80AD8
:100020000C94D80A0C94D80A0C94D80A0C94D80AC8
:100030000C94D80A0C94D80A0C94D80A0C94D80AB8
:100040000C94D80A0C94D80A0C94D80A0C94D80AA8
:100050000C94D80A006000710015B40000407A10BA
:10006000F35A00A0724E18090010A5D4E80000E869
:100070007648170000E40B54020000CA9A3B0000C7
:1000800000E1F505000080969800000040420F0056
:100090000000A08601000000102700000000E80317
:1000A000000000006400000000000A0000000000E2
:1000B0000100000000002C76D888DC674F0823DFA1
:1000C000C1DFAE59E1B1B796E5E3E453C63AE65174
:1000D000997696E8E6C28426EB898C9B62ED407C9B
:1000E0006FFCEFBC9C9F40F2BAA56FA5F490055A37
:1000F0002AF75C936B6CF9676DC11BFCE0E40D475C
:10010000FEF520E6B500D0ED902E0300943577057E
:100110000080841E080000204E0A000000C80C3336
:100120003333330F986E12831141EF8D2114893BC5
:10013000E65516CFFEE6DB18D1844B381BF77C1D45
:10014000901DA4BBE424203284725E228100C9F198
:1001500024ECA1E53D2711241FBECFE5D8E0DEBF8A
:10016000CDBFE4E5F0E040E017C0B591A591359131
:100170002591059107FD0CC095918591EF01F92F0F
:10018000E82F05900D92A217B307D9F7FE0104C01E
:100190001D92A217B307E1F7EB35F40731F70E9480
:0A01A000C1080C94D300F894FFCFBF
:1001AA0025643A25312E3266204D413A25312E32C8
:1001BA0066004D493A25312E32662061563A25317C
:0401CA002E3266006B
:0801CE00696E66006E616E00AF
:1001D600A4E1B0E0E1EFF0E00C9494096C011A019F
:1001E600462E5901FC0110861782848181FF62C365
:1001F600CE0101969D878C87A0E88A8B9B8BAC8B62
:10020600F101849147FC8081882309F44FC3442D72
:1002160091012F5F3F4F4F4F853219F01901442E40
:100226000AC0F901849147FD808192E0290E311CB4
:10023600411C853249F4B60190E00E942B08BF8626
:10024600AE86AE84BF84DCCF10E0F12C00E0003235
:10025600A0F48B3269F030F4803259F0833269F4BD
:1002660000612CC08D3239F0803339F4016026C02C
:100276000260046023C0086021C007FD29C090ED1C
:10028600980F9A3078F406FF06C0AAE01A9F900DE0
:100296001124192F13C0EAE0FE9E900D1124F92EA9
:1002A60000620CC08E3221F406FD00C3006406C055
:1002B6008C3611F4006802C0883651F4F10184913D
:1002C60047FC8081FFEF2F1A3F0A4F0A8111BFCFEB
:1002D6009BEB980F933018F40061805E06C09BE993
:1002E600980F933008F066C10F7E06FF16E00F7375
:1002F600702E853621F4202F2064722E08C0863693
:1003060021F4802F8068782E02C01111115077FEDB
:1003160007C01C3350F4EE24E394E10E27E00BC033
:10032600183038F027E017E005C027E06CE3E62E2A
:1003360002C0212FE12CF5013496FF87EE87F501E7
:1003460060817181828193810E2DAE014F5F5F4F77
:100356000E948D045C01598050FE02C053FE06C007
:1003660071FC06C072FE06C000E205C00DE203C0C5
:100376000BE201C000E0852D8C7019F0011173C2EB
:10038600BEC277FE0FC0EA0C54FE04C08A818133D8
:1003960009F4EA941E1474F528E02E1578F538E071
:1003A600E32E2CC076FC2AC0812F90E08A159B058F
:1003B6009CF08CEFA8168FEFB80674F0972D906816
:1003C600792E0AC0E2E0F0E0EC0FFD1FE10FF11D0F
:1003D6008081803319F411501111F4CF77FE0EC0CD
:1003E600EE24E394E10E812F90E0A816B9062CF4D2
:1003F6001A1904C0EE24E39401C010E077FE06C08B
:100406001A141B0434F4C501019605C085E090E07A
:1004160002C081E090E001110196112331F0212FF5
:1004260030E02F5F3F4F820F931F2F2D30E0821752
:10043600930714F4F81A01C0F12C872D897049F43A
:10044600FF2039F0B60180E290E00E942B08FA9472
:10045600F7CF002329F0B601802F90E00E942B08E9
:1004660073FC09C0FF2039F0B60180E390E00E94DA
:100476002B08FA94F7CF77FE49C03501B7FE02C0C4
:10048600612C712CC5018619970988248394912CB7
:100496008C0E9D1E880E991EF501EE19F109F98B39
:1004A600E88B012F10E0119501951109FFEF6F16EA
:1004B6007F0629F4B6018EE290E00E942B08A6146E
:1004C600B70444F088899989861597051CF4F401C8
:1004D600818101C080E3F1E06F1A71082FEF821A63
:1004E600920A601671062CF0B60190E00E942B0865
:1004F600DDCFA614B70439F49A81963318F49533F0
:1005060011F454FE81E3B60190E051C08A81813333
:1005160019F0952D9F7E592EB60190E00E942B086A
:10052600111105C074FC1CC085E690E01BC0B60125
:100536008EE290E00E942B0802E0010F82E011E0BB
:10054600180FE1E0F0E0EC0FFD1FE80FF11D8081D0
:10055600B60190E00E942B08812F1013F0CFE2CF56
:1005660085E490E0B6010E942B08B7FC05C0A114F3
:10057600B10439F454FE05C0B194A194B1088DE2DA
:1005860001C08BE2B60190E00E942B0880E3EAE00E
:10059600AE16B1042CF08F5FAAE0AA1AB108F7CF05
:1005A600B60190E00E942B08B601C501C0960E94D4
:1005B6002B0872C1833631F0833791F0833509F009
:1005C6005DC024C0C50102969F878E87F501808194
:1005D60089836A887B888C88AA24A394B12C14C04A
:1005E600C50103969F878E87F501608071808280A2
:1005F60006FF03C0412F50E002C04FEF5FEF882D8A
:10060600B3010E94E6095C010F7715C0C501039688
:100616009F878E87F50160807180828006FF03C008
:10062600412F50E002C04FEF5FEF882DB3010E94CB
:10063600E6095C01006803FD1DC08F2D90E0A81639
:10064600B906C0F4B60180E290E00E942B08FA9445
:10065600F4CFF301849187FC8081FFEF6F1A7F0A44
:100666008F0AB60190E00E942B08F110FA9421E05F
:10067600A21AB108A114B10461F70EC1843611F0B3
:10068600893679F5C50107FF09C004969F878E87CD
:10069600F50160817181828193810AC002969F87EC
:1006A6008E87F50160817181072E000C880B990BEE
:1006B6000F76E02E97FF0AC090958095709561950C
:1006C6007F4F8F4F9F4FF02FF068EF2E2AE030E0DC
:1006D600AE014F5F5F4F0E949007A82E2C85A21A8D
:1006E6004BC0853729F40F7EE02E2AE030E025C086
:1006F600902F997FE92E8F36C1F018F4883579F05E
:10070600D5C0803719F0883721F0D0C0A92FA06155
:10071600EA2EE4FE0DC0EE2DE460EE2E09C004FFC5
:100726000AC0F92FF660EF2E06C028E030E005C0BB
:1007360020E130E002C020E132E0C501E7FE09C059
:1007460004969F878E87F5016081718182819381EE
:1007560008C002969F878E87F5016081718180E0CF
:1007660090E0AE014F5F5F4F0E949007A82EFC8578
:10077600AF1A2E2D2F77E22EE6FE0BC00E2D0E7F22
:10078600A11650F4E4FE0AC0E2FC08C00E2D0E7E4F
:1007960005C0BA2C0E2D03C0BA2C01C0B12E04FF21
:1007A6000DC0FE01EA0DF11D8081803311F4097E32
:1007B60009C002FF06C0B394B39404C0802F8678A4
:1007C60009F0B39403FD11C000FF06C0BF1488F4FE
:1007D600FA0C1F2D1B190EC0BF1460F4B60180E27F
:1007E60090E00E942B08B394F7CFBF1418F4FB18BF
:1007F60002C01A2DF12C04FF10C0B60180E390E070
:100806000E942B0802FF17C001FD03C088E790E095
:1008160002C088E590E0B6010CC0802F867859F0BA
:1008260001FF02C08BE201C080E207FD8DE2B60146
:1008360090E00E942B08A11638F4B60180E390E000
:100846000E942B081150F7CFAA94E1E0F0E0EC0FDC
:10085600FD1FEA0DF11D8081B60190E00E942B0874
:10086600A110F2CF19C0F4E0FF1580F584E0F81A64
:1008760073FE23C001112BC053FE2FC052ED852EEF
:1008860051E0952E50E0A52E072D0071F4018491BC
:10089600A7FC8081811128C0FF2009F4D2CCB601C3
:1008A60080E290E00E942B08FA94F6CFF601878149
:1008B60090852CC08FEF9FEF29C0B60180E290E0B3
:1008C6000E942B08FA94F110F8CFD4CFF12CB60180
:1008D600802F90E00E942B08CFCF4EEC842E41E073
:1008E600942E40E0A42ED0CF01118052B60190E0A4
:1008F6000E942B08FFEF8F1A9F0AAF0AC7CF23E08B
:100906002F1510F483E0B3CFF12CB6CF6496E2E155
:040916000C94CB0969
:10091A00283008F027E03327DA01990F311D87FDC7
:10092A00916000966105710539F432602E5F3D933E
:10093A0030E32A95E1F708959F3F30F0803871053A
:10094A00610509F03C5F3C5F3D93913008F0806897
:10095A00911DDF93CF931F930F93FF92EF92192F5D
:10096A00987F9695E92F96959695E90FFF27EA5471
:10097A00FF4F99273327EE24FF24A701E7010590AB
:10098A000894079428F4360FE71EF81E491F511DD4
:10099A00660F771F881F991F0694A1F70590079481
:1009AA0028F4E70EF81E491F561FC11D770F881F2E
:1009BA00991F661F0694A1F70590079428F4F80E6C
:1009CA00491F561FC71FD11D880F991F661F771F02
:1009DA000694A1F70590079420F4490F561FC71FE4
:1009EA00D81F990F661F771F881F0694A9F784914D
:1009FA001095177041F0D695C79557954795F79476
:100A0A00E7941A95C1F7ECE5F0E068941590159112
:100A1A0035916591959105907FE27395E118F10AF8
:100A2A00430B560BC90BD009C0F7E10CF11E431F4B
:100A3A00561FC91FD01D7EF4703311F48A95E6CF74
:100A4A00E894015030F0080F0AF40027021708F45E
:100A5A00202F2395022F7A3328F079E37D932A9564
:100A6A00E9F710C07D932A9589F6069497956795BC
:100A7A00379517951794E118F10A430B560BC90BD2
:100A8A00D00998F023957E9173957A3308F070E334
:100A9A007C932013B8F77E9170617D9330F0839533
:100AAA0071E37D9370E32A95E1F71124EF90FF90AB
:100ABA000F911F91CF91DF91992787FD9095089506
:100ACA006F927F928F92EF92FF920F931F93CF9321
:100ADA00DF93CDB7DEB761970FB6F894DEBF0FBECE
:100AEA00CDBF60E080E00E94340A00E610E0F80121
:100AFA004481558166817781808191812281338108
:100B0A007F936F935F934F933F932F939F938F930B
:100B1A00809170001F928F938AEA91E0A0E0AF93D0
:100B2A009F938F93CE0101967C019F938F930E948E
:100B3A003209370190E8892E882DB3010E94B00945
:100B4A0060E081E00E94340AF80144855585668593
:100B5A00778580859185228533857F936F935F930F
:100B6A004F933F932F939F938F938CEB91E0A0E049
:100B7A00AF939F938F93FF92EF920E943209882D31
:100B8A00B3010E94B0090FB6F894DEBF0FBECDBF05
:100B9A0061960FB6F894DEBF0FBECDBFDF91CF913D
:100BAA001F910F91FF90EF908F907F906F90089513
:100BBA00CF92DF92EF92FF92CF93DF930E945F0A68
:100BCA0084EF91E00E944C0A0E94E9088093700029
:100BDA00883009F459C00E94930ABC01990F880B06
:100BEA00990B0E94F00720E030EC4FE754E40E9492
:100BFA00CD0A20E030E040EA50E40E94D10A6B01BD
:100C0A007C01E0E6F0E06083718382839383248130
:100C1A003581468157810E94C80A181644F4C09249
:100C2A006400D0926500E0926600F092670020911D
:100C3A0068003091690040916A0050916B00C701C9
:100C4A00B6010E94C30A882344F4C0926800D09275
:100C5A006900E0926A00F0926B00C0E6D0E02C8551
:100C6A003D854E855F85C701B6010E949D0A20E039
:100C7A0030E040E05FE30E94D10A6C877D878E876F
:100C8A009F870E9465059CCFDF91CF91FF90EF90DF
:060C9A00DF90CF900895E9
:100CA00010C00E94AA0A58F00E94A30A40F029F43A
:100CB0005F3F29F00C94B80A51110C94B20A0C94BD
:100CC000D50A0E94550968F39923B1F3552391F38E
:100CD000951B550BBB27AA2762177307840738F0AB
:100CE0009F5F5F4F220F331F441FAA1FA9F335D008
:100CF0000E2E3AF0E0E832D091505040E695001CBC
:100D0000CAF72BD0FE2F29D0660F771F881FBB1F75
:100D1000261737074807AB07B0E809F0BB0B802D53
:100D2000BF01FF2793585F4F3AF09E3F510578F07F
:100D30000C94B80A0C94B20A5F3FE4F3983ED4F3E3
:100D4000869577956795B795F7959F5FC9F7880F53
:100D5000911D9695879597F90895E1E0660F771FA5
:100D6000881FBB1F621773078407BA0720F0621B36
:0E0D7000730B840BBA0BEE1F88F7E095089505
:100D7E000FC00E94A30A38F00E94AA0A20F0952301
:100D8E0011F00C94B80A0C94D50A11240C94B20AE2
:100D9E000E94550970F3959FC1F3950F50E0551FB2
:100DAE00629FF001729FBB27F00DB11D639FAA27B2
:100DBE00F00DB11DAA1F649F6627B00DA11D661F01
:100DCE00829F2227B00DA11D621F739FB00DA11D22
:100DDE00621F839FA00D611D221F749F3327A00DDC
:100DEE00611D231F849F600D211D822F762F6A2F78
:100DFE0011249F5750409AF0F1F088234AF0EE0FDD
:100E0E00FF1FBB1F661F771F881F91505040A9F709
:100E1E009E3F510580F00C94B80A0C94B20A5F3FC5
:100E2E00E4F3983ED4F3869577956795B795F79545
:100E3E00E7959F5FC1F7FE2B880F911D96958795BD
:040E4E0097F9089573
:100E520011C00E94A30A38F00E94AA0A20F039F4B5
:100E62009F3F19F426F40C94D50A0EF4E095E7FBA3
:100E72000C94B80AE92F0E94550958F3BA17620771
:100E820073078407950720F079F4A6F50C94B10A4C
:100E92000EF4E0950B2EBA2FA02D0B01B901900193
:100EA2000C01CA01A0011124FF27591B99F0593FD7
:100EB20050F4503E68F11A16F040A22F232F342F1F
:100EC2004427585FF3CF469537952795A795F0406D
:100ED2005395C9F77EF41F16BA0B620B730B840B82
:100EE200BAF09150A1F0FF0FBB1F661F771F881F3A
:100EF200C2F70EC0BA0F621F731F841F48F4879592
:100F020077956795B795F7959E3F08F0B0CF939583
:0E0F1200880F08F09927EE0F979587950895A0
:100F2000FA01AA27283051F1203181F1E8946F931A
:100F30006E7F6E5F7F4F8F4F9F4FAF4FB1E03ED0C0
:100F4000B4E03CD0670F781F891F9A1FA11D680F5E
:100F5000791F8A1F911DA11D6A0F711D811D911D91
:100F6000A11D20D009F468943F912AE0269F112406
:100F70003019305D3193DEF6CF010895462F47706A
:100F8000405D4193B3E00FD0C9F7F6CF462F4F70C5
:100F9000405D4A3318F0495D31FD4052419302D023
:100FA000A9F7EACFB4E0A6959795879577956795C9
:100FB000BA95C9F700976105710508959B01AC01C9
:100FC0000A2E06945795479537952795BA95C9F7F0
:0C0FD000620F731F841F951FA01D089561
:100FDC00E89409C097FB3EF49095809570956195C7
:100FEC007F4F8F4F9F4F9923A9F0F92F96E9BB277D
:100FFC009395F695879577956795B795F111F8CFF9
:10100C00FAF4BB0F11F460FF1BC06F5F7F4F8F4F63
:10101C009F4F16C0882311F096E911C0772321F059
:10102C009EE8872F762F05C0662371F096E8862FF1
:10103C0070E060E02AF09A95660F771F881FDAF748
:0A104C00880F9695879597F908958F
:101056000F931F93CF93DF93FB01248121FD03C0E0
:101066008FEF9FEF2CC022FF16C047815085258148
:1010760036814217530744F4A081B1819D012F5F49
:101086003F4F318320838C93278130852F5F3F4FDD
:101096003087278314C08B01EC01FB010184F285A4
:1010A600E02D0995892BE1F6D80117968D919C9133
:1010B6001897019618969C938E931797CE01DF91F9
:0810C600CF911F910F910895D5
:1010CE0087B3816087BB87B3826087BB87B3846039
:1010DE0087BB80E190E00E944C0A60E080E30E94B2
:1010EE001B0A85E090E00E944C0A60E080E30E94BB
:1010FE001B0A81E090E00E944C0A60E08CE30E94A3
:10110E00830A60E08CE00E94830A60E086E00E9421
:0C111E00830A60E081E00E94830A0895CB
:10112A00CF93DF9314BA15BAEB01249644B321E0A6
:10113A0030E0B90102C0660F771F8A95E2F7CB014A
:10114A00842B84BB85B30C2E02C0220F331F0A9452
:10115A00E2F7282B25BB81E090E00E944C0A83B37A
:10116A0090E002C095958795CA95E2F761E08627D7
:08117A008170DF91CF9108950F
:101182000E94670888EE93E00E944C0A0E94BE0A01
:1011920084EF91E00E944C0A0E94E9088111809339
:1011A200700080917000843029F0883061F08330C3
:1011B20061F406C00E945F0A88E08093700005C057
:1011C2000E94DD0502C00E9477090E946505E0CFFA
:1011D2000F931F93CF93DF9300E010E015C0BE0181
:1011E200C8010E949508882331F0802F880F880F4C
:1011F2008C0F8F5F0DC0219602C0C0E0D0E0C430DA
:10120200D1056CF30F5F1F4F04301105B4F380E07A
:0A121200DF91CF911F910F91089515
:10121C00990F0008550FAA0BE0E8FEEF16161706FB
:10122C00E807F907C0F012161306E407F50798F063
:10123C00621B730B840B950B39F40A2661F0232B7C
:10124C00242B252B21F408950A2609F4A140A695F8
:08125C008FEF811D811D089533
:10126400AFE0B0E0E8E3F9E00C94A2090E891F892D
:1012740086E08D831A8309838FEF9FE79F838E8394
:101284009E01255E3F4F488D598D6A8DCE01019692
:101294000E94EB00E885F985E00FF11F10822F967C
:0612A400E4E00C94D909FE
:1012AA0057FD9058440F551F59F05F3F71F047950D
:1012BA00880F97FB991F61F09F3F79F087950895F2
:1012CA00121613061406551FF2CF4695F1DF08C011
:1012DA00161617061806991FF1CF8695710561052E
:0412EA0008940895C7
:1012EE000E94930ABC01990F880B990B0E94F0077C
:1012FE0020E030EC4FE754E40E94CD0A20E030E0CD
:10130E0040EA50E40E94D10A60936000709361003D
:0A131E00809362009093630008952D
:101328002F923F924F925F926F927F928F929F92ED
:10133800AF92BF92CF92DF92EF92FF920F931F93DB
:10134800CF93DF93CDB7DEB7CA1BDB0B0FB6F8948C
:08135800DEBF0FBECDBF0994FA
:10136000CF92DF92EF92A82FCB0105C061E00E94DF
:10137000830AAE2DC6016C01EA2E2FEFC21AD20AE3
:10138000E20AFC018491A7FD80818111EFCFEF90EB
:06139000DF90CF900895EC
:101396002A88398848885F846E847D848C849B84FF
:1013A600AA84B984C884DF80EE80FD800C811B810D
:1013B600AA81B981CE0FD11D0FB6F894DEBF0FBE3C
:0613C600CDBFED0108950A
:1013CC00CF92DF92EF926B01E82EA82FCB01411543
:1013DC00510531F48C199D09EF90DF90CF90089551
:1013EC00FC012491A7FD20812223A1F30196A11DCC
:0613FC0041505109ECCF45
:10140200882321F088B3816088BB03C088B38E7FB4
:1014120088BB88B3826088BB11BA80B388B384600A
:1014220088BB00000000000011BA80B398B39B7F14
:0414320098BB0895C6
:10143600662321F098B3916098BB03C098B39E7F52
:1014460098BB98B39D7F98BB82BB8FEF81BB88B357
:10145600846088BB00000000000088B38B7F88BBD7
:021466000895E7
:10146800CF93DF93C62F98E2899FC00D112460E0C7
:1014780082E00E94830A05C060E084E10E94830A3A
:10148800CD2FDFEFDC0FC111F7CFDF91CF9108959A
:1014980023E023BF09C083E882BF88B7816088BF83
:1014A80008B600FEFDCFC9019C0121503109892BE6
:0614B80091F713BE089538
:1014BE0080E090E00CC0FC01EE0FFF1FEE0FFF1F4F
:1014CE00E05AFF4F108211821282138201968430ED
:0614DE0091058CF3089556
:1014E400092E0394000C11F4882352F0BB0F40F42E
:1014F400BF2B11F460FF04C06F5F7F4F8F4F9F4F6E
:02150400089548
:10150600CF93DF93C82FD62F80E00E94010A88234D
:10151600DCF36D2F8C2F0E941B0ADF91CF9108956B
:1015260080E487B980EC86B93699FECF84B195B14F
:02153600089516
:0E1538005058BB27AA270E9429070C94720A5C
:0E15460000240A9416161706180609060895C2
:0E15540000240A9412161306140605060895C4
:0E156200E894BB2766277727CB0197F90895F9
:0C15700097F99F6780E870E060E0089544
:0A157C0060E081E00E94830A0895F8
:0A1586000E940E0908F481E00895A8
:0A1590000E940E0908F48FEF089581
:08159A000E9450060C94720A35
:0815A2000E94BF060C94720ABE
:0615AA009FEF80EC0895A4
:0415B0000C94000097
:1015B4008FC2F53D1F856B3E7B14AE3E6666E63EEC
:0115C400081E
:00000001FF
